:1000000000000420750300005D0300005F03000092
:1000100061030000630300006503000000000000AE
:100020000000000000000000000000006703000066
:1000300069030000000000006B0300006D03000076
:100040006F0300006F030000810600006F030000D3
:100050006F0300006F0300006F030000DD06000067
:10006000750B00006F0300006F0300006F030000BA
:100070006F0300006F0300006F0300006F030000B8
:100080006F0300006F0300006F0300006F030000A8
:100090006F0300006F0300006F0300006F03000098
:1000A0006F0300006F0300006F0300006F03000088
:1000B0006F0300006F03000000000000000000005C
:1000C0006F0300006F0300006F0300006F03000068
:1000D0006F0300006F0300006F0300006F03000058
:1000E0006F0300006F0300006F03000000000000BA
:1000F000000000006F030000000000006F0300001C
:1001000000000000000000000000000000000000EF
:1001100000000000000000000000000000000000DF
:1001200000000000000000000000000000000000CF
:1001300000000000000000000000000000000000BF
:1001400000000000000000000000000000000000AF
:10015000000000000000000000000000000000009F
:10016000000000000000000000000000000000008F
:10017000000000000000000000000000000000007F
:10018000000000000000000000000000000000006F
:10019000000000000000000000000000000000005F
:1001A000000000000000000000000000000000004F
:1001B000000000000000000000000000000000003F
:1001C000000000000000000000000000000000002F
:1001D000000000000000000000000000000000001F
:1001E000000000000000000000000000000000000F
:1001F00000000000000000000000000000000000FF
:10020000354936480A1A02D0072291438D463449AF
:1002100034480A1A06D00722914381F30988022242
:1002200082F3148830483149314A00F044F83148AB
:100230003149324A00F03FF831483249324A00F041
:100240003AF832483249334A00F035F832483349F7
:10025000334A00F030F833483349344A00F02BF881
:1002600033483449344A00F026F8344834490022EF
:1002700000F02CF833483449002200F027F83348C6
:100280003349091A082902DB002202604160314A21
:1002900090471F481F49884205D00268043003B4C4
:1002A000904703BCF7E700208646EC46002000217B
:1002B000294A9047FEE7884207D0521A05D00378B2
:1002C00001300B700131013AF9D17047884202D0F8
:1002D00002700130FAE770470000042000E00320BC
:1002E00000000420000004204C1A00000000002040
:1002F00018000020D4030000D4030000F01900000F
:100300004C1A00000000002000000020F01900003E
:10031000F0190000F0190000F0190000F0190000B9
:10032000F0190000F0190000F01900004C1A00004C
:10033000641A000018000020180000201800002097
:10034000FD02002000030020000300200003002025
:10035000002300209D030000F5170000FEE7FEE7E4
:10036000FEE7FEE7FEE7FEE7FEE7FEE7FEE7FEE765
:10037000704700BF1048804710484FF0070188437E
:1003800085460F4880470F48016841F470010160BD
:10039000BFF34F8FBFF36F8FFFF732BF0A480B4990
:1003A0000B4A884207D0521A05D0037801300B70EF
:1003B0000131013AF9D170477103000000000420B7
:1003C0003918000088ED00E0F0190000000000205E
:0403D0000000002009
:1003D4001FB50021039001AA44F20100CDE90111E7
:1003E40000F004F805B05DF804FB000072B6094B98
:1003F4001B68DB0700D500BEBFF34F8F0649074BD0
:10040400CA6802F4E0621343CB60BFF34F8F00BFAE
:10041400FDE700BFF0ED00E000ED00E00400FA05A8
:1004240072B6024A13680133136070471800002043
:10043400034A1368013B136003B962B6704700BFF7
:1004440018000020FFF7ECBFFFF7F2BF064B10B512
:1004540000241C70054B1C60BFF35F8F04490548E2
:1004640000F024F8204610BD2400002028000020BD
:10047400F01900001C00002008B50020FFF7E2FF7F
:10048400F1EE103A23F09F03E1EE103ABFF35F8FD1
:10049400054B4022C3F884210020FFF7D5FF20BF7D
:1004A40040BF20BF08BD00BF00E100E00B684A6800
:1004B4004360934208BF0023016008BF4360704754
:1004C400034B187810B901221A70704785207047C1
:1004D4002C0000201FB503788DF800304368019389
:1004E400037A8DF80830C3680393054A054B6846C0
:1004F40053F8213052F82110984705B05DF804FBF9
:1005040030000020380000201FB503788DF800303B
:100514004368019383688DF80830C3680393054AE0
:10052400054B684653F8213052F82110984705B01E
:100534005DF804FB3000002038000020F0B5194BB2
:100544000678DFF870E043F82620174B94460A69D2
:1005540043F826204B7F0EF806300C4607460FCC96
:1005640089B06D460FC594E80F0085E80F001EF8AA
:100574000630049653B1BCF1000F0C4A694608BF1B
:100584000022381D00F034FE09B0F0BDBCF1000FAC
:10059400074A694608BF002207F10C0000F0FEFB81
:1005A400F2E700BF3800002030000020D90400002A
:1005B4000D050000400000202DE9F84F124D134FA7
:1005C40080464FF0000A04264FF001095FFA8AFBC7
:1005D400002009FA0BF4FFF735FF2C4208D03B68E2
:1005E40014EA030201BF23433B6088F800B01646B7
:1005F4000020FFF729FF1EB1A5430AF1010AE5D146
:100604003046BDE8F88F00BFFFFF0F004400002014
:1006140010B5A1B19AB101238340C3F3130484B18B
:100624000A4C246823420ED0C00000F1804000F53B
:10063400F830C0F81015C0F81425002010BD0E20A5
:10064400FCE70720FAE70820F8E700BF4400002091
:10065400012303FA00F0C0F313031BB1054B1B681D
:10066400184204D0044BC3F8040500207047082046
:10067400704700BF4400002000F00140014B1B689C
:10068400184700BF4800002038B50B4B98420D4670
:1006940001D0002038BD0020FFF7D4FE074B1C79A1
:1006A40014B901221D601A710020FFF7CDFE002C41
:1006B400EFD01120EEE700BF0020004048000020EA
:1006C40000F1804000F5E040002382B0036003683D
:1006D4000193019B02B07047F0B5534B534C1B6818
:1006E40085B0002B3DD04FF4827094F82E20FFF794
:1006F400E7FF2AB394F82F3013BB4D4B1B68002B34
:1007040033D04FF48070FFF7DBFF94F82D20638B18
:1007140091B28B424ED95B1A21899BB26383CB1A67
:10072400616801EB4301434BC3F82C16C3F8302630
:100734004FF48270FFF7C4FF3F4B01221A6014E0AC
:10074400636802932389ADF80C30E36800218DF8C7
:10075400041023BB2374236801A89847002384F85A
:100764002F3094F82E30002BC7D1344B1B685BB16B
:100774004FF48870FFF7A4FF0023237402238DF83D
:10078400043001A8236898472D4B1B6813B34FF41A
:100794008A70FFF795FF0023237405B0F0BD208B0A
:1007A400608363602081E160002AD4D1214B01225F
:1007B4001A60D0E7BCD1E368012184F82F103BB163
:1007C400002161831B49C1F82C36C1F83026AFE7FC
:1007D4006383ADE766694FF000470125002EDCD046
:1007E400B6FA86F227FA02F34632920026EA0306A4
:1007F40002F1804303F5E0431B68002BEED0104662
:10080400FFF75EFFA2F58C72D30882F00402C2F3F4
:1008140080028DF808308DF804508DF80920236883
:1008240001A89847DAE700BF047100405000002097
:1008340000710040007000400470004010710040DE
:100844001471004038B51D4B044693F82C0098BB36
:100854001B4A19602178C2F8F0156178C2F8F415C2
:10086400E5781874012183F82C1083F82D00586161
:1008740083F82F0083F82E506FF00043C2F808333A
:100884004FF48270FFF71CFF4FF48070FFF718FFDE
:10089400A3780C485B01DBB280F807338023C0F8EF
:1008A400803103600223C2F804330DB1C2F804138B
:1008B400C2F80015002038BD0820FCE750000020D5
:1008C4000070004000E100E0224B1A7C30B5002AA1
:1008D4003ED100F10C0403EB4402127922B993F8DF
:1008E4002D20013283F82D2003EB4403CA790C7ABE
:1008F4001A715C718D784B782D021B0105F4E0654B
:1009040003F030032B430D7805F003052B43CD781A
:100914002D0305F480552B430D792D0405F4E025B2
:100924002B434D7989792D0505F48015090601F0CD
:1009340080712B430B43010101F1804101F5E0413A
:100944000020C1F81835C1F81445C1F8102530BD90
:100954001120FCE750000020054B93F82E30002BAB
:1009640014BF0020042000F1804000F5E0407047EF
:1009740050000020264A274B70B505461220C2F8C5
:1009840008031C7C022C03D1C2F80403112070BD9F
:10099400187C01281DD1D86818B10223C2F8043389
:1009A400F4E7DD60198393F82E3063B91A4A1368AB
:1009B400002BFCD04FF48070FFF782FE144BC3F879
:1009C4002C56C3F83016124B0222C3F8042300201D
:1009D400DDE7022093F82E40C2F80403012600202C
:1009E4001E745D601981D8603CB1598393F82D3031
:1009F400C2F82C56C2F83036C9E7C2F82C564FF468
:100A04008070C2F83016FFF75BFE20461660BEE722
:100A1400007000405000002000710040F7B50579D7
:100A2400334C0C266E43A7193B7A002B5DD1A2519F
:100A34004A687A60467900681F46DAB296424BD813
:100A4400020B53B2CE78002BA8BF03F16047D2B299
:100A54004FEA5313B8BF02F00F0C4FEA4616B4BF67
:100A6400244F07F561474FEA8303F6B203F160436D
:100A7400B4BF07F80C6087F8006303F561430126EF
:100A840002F01F0206FA02F2C3F880211A60D0F8BD
:100A940004254B7822F0030203F003031343C0F848
:100AA4000435D0F808258B7822F0030203F0030301
:100AB4001343C0F80835D0F810250B7822F00F0244
:100AC40003F00F031343C0F810350C2303FB054454
:100AD4000020267203B0F0BD9A0002F5A072013323
:100AE400875082580192019AA7E70820F2E700BFD5
:100AF4008000002014ED00E0036801221A600379ED
:100B0400034A0C2101FB032302221A72704700BF1F
:100B14008000002037B54FF480348C4000687BB1EE
:100B240001F150039B000025C550C3580193019B5C
:100B3400C0F8044301F5A87140F8212003B030BD8A
:100B4400C0F80843F6E770B4046840F20116D4F81C
:100B540000528E4025EA0605C4F80052D4F800522B
:100B64002B43C4F800329DF80C3070BCFFF7D2BFA1
:100B74002DE9F341104C114F114E00254FF48038EC
:100B84002368A4F5004080B26BB1D7F8043308FAA7
:100B940005F21A4207D00023236023680193019BC6
:100BA400D6E9003198470135042D04F10404E7D156
:100BB40002B0BDE8F08100BF4081004000800040E9
:100BC400800000200023435082B043580193019BCE
:100BD40002B070470A4610B54FF48E71FFF7F2FF6A
:100BE400136A9168C95C136A01331362C0F81C1557
:100BF40010BD024608B54FF492710068FFF7E2FF9A
:100C04004FF484711068FFF7DDFF136801221A6046
:100C140008BD8B690A4610B54FF4847123B9FFF7F8
:100C2400D1FFD0F8183510BDFFF7CCFF536AD16857
:100C3400D0F81805C854536A01335362F3E700002F
:100C44001FB501238DF80030044BCDE90110D3E921
:100C540000126846904705B05DF804FB8C00002044
:100C640030B54C4AD2F8043313F4007F85B01546EE
:100C74004FD0D2F82431002B4BD04FF49271104650
:100C8400FFF7A0FF4FF40173C2F80833424B93F807
:100C9400291009B9012151603E4902228DF8002032
:100CA400D1F88024C1F8802403929A690292DA6808
:100CB40001920022C3E906226846D3E90012904754
:100CC4003448D0F81C315BB133490A6A4B699A4203
:100CD4000A464BD291F82830002B47D1FFF77AFF10
:100CE4002C4AD2F8443193B14FF4A2711046FFF765
:100CF40069FF294B93F8291009B1012111609A6900
:100D04002AB100229A61586AD968FFF799FF05B0A1
:100D140030BDD5F804335B07D2D5D5F80831002BA4
:100D2400CED01D4C1B482146FFF773FF636AA269AE
:100D34009A422346C4D1E269E1684AB12369E36077
:100D44000023606AA261E3616362FFF779FFB7E79A
:100D540094F829200AB901226A600E4A4FF40170FE
:100D6400C2F8080300229A61586AEEE74FF48E71C4
:100D74000848FFF727FF51690029B1D000230291E9
:100D840091688DF80030019153616846D2E90013EF
:100D94009847A5E7002000408C0000202DE9F84387
:100DA400664B047991462C2202FB0432064692F8E3
:100DB4002A200D469846002A40F0BC80604900680D
:100DC400FFF762FC0746002840F0B68029684A1CF9
:100DD40010D01F2987BF01F01F035A4A0B464FF05A
:100DE400A0420120984003F5E073C2F808050320EF
:100DF40042F823006868431C0DD01F288BBF00F005
:100E04001F0303464F4A4FF0A04203F5E0734FF02F
:100E1400000C42F823C03368AA6995F814C0C3F8DB
:100E240024256A7DBCF1010F4CEA0202C3F86C254B
:100E3400C3F81405C3F80C152BD1A968481C0DD0B0
:100E44001F298BBF01F01F020A463E484FF0A04005
:100E540002F5E0724FF0000C40F822C0E868421C32
:100E640013D01F2887BF00F01F0C364A84464FF06A
:100E7400A0424FF0010E0EFA0CFE0CF5E07CC2F815
:100E840008E54FF0030E42F82CE0C3F80805C3F858
:100E940010152C23634308EB0302C2F804902A695B
:100EA40048F80320B9F1000F31D04FF48E71306847
:100EB4002D7FFFF787FE30684FF4A271FFF782FEA3
:100EC4003268214BC2F80433120B53B2002BA8BF73
:100ED40003F160404FEA53134FEA4511BABF1B4870
:100EE40002F00F0500F561404FEA8303C9B203F134
:100EF4006043B4BF415580F8001303F5614302F029
:100F04001F02012101FA02F2C3F880211A6033683A
:100F14000422C3F800252C2303FB04830022C3E925
:100F2400062283F829205A61012283F82A203846B0
:100F3400BDE8F8830827FAE71127F8E78C000020BA
:100F4400650C0000000300508000020014ED00E076
:100F54002DE9F843224F06794FF02C0909FB06745A
:100F640080466569002D37D16261A16025624FF426
:100F74008E71006884F82850FFF724FED8F800002A
:100F8400012383602146FFF725FE6368A1462BBB3E
:100F9400D8F80050226A63699A4212D3D8F8003014
:100FA400D3F81C21002AFBD00122DA6000202C2374
:100FB40003FB067600237361BDE8F88394F82830B8
:100FC40043B9D5F81C31002BF8D049462846FFF721
:100FD40001FEDFE70F20EAE71120EDE72846EBE703
:100FE4008C0000202DE9F843384E05792C2303FBAF
:100FF400056307465C6824B103684FF40170C3F8C5
:1010040008032C2303FB0563986950B1D8690028B1
:101014003ED024B13B684FF40172C3F8042311207D
:1010240034E09A61D9605862D8612C2303FB0563CC
:1010340093F829301BB910B93846FFF7DAFD4FF0A1
:101044002C0909FB05683868D8F80430002B34D122
:101054004FF4A271FFF7B6FDC1463868D0F82431C9
:10106400D0F80821D0F84441B2B90CB9002BF4D01F
:101074002C2202FB05650022AA611BBB24BB95F848
:1010840029103B680122B1B11A600020BDE8F88341
:101094001961DA610120C8E7002BE9D1002CE7D1FE
:1010A4004946FFF7B6FDD8F82430D8F818209A42FC
:1010B400D3D82346DCE75A60E7E74FF40173C0F85E
:1010C4000433E2E70320E1E70F20DFE78C00002090
:1010D4000023435082B043580193019B02B07047F0
:1010E4001FB501238DF80030054B8DF808000191E0
:1010F4006846D3E90012904705B05DF804FB00BFD1
:10110400B80000207FB5384AD2F82461002E49D0B7
:1011140010464FF49271FFF7DBFF02238DF8003085
:10112400D2F88034C2F880340393D2F83C358DF879
:1011340008302E4BDA6801920022C3E90622684681
:10114400D3E900129047284AD2F8443173B14FF4DE
:10115400A2711046FFF7BCFF244B996931B10021FD
:101164009961D2F83C05D968FFF7BAFF1E4AD2F854
:101174002031ABB14FF490711046FFF7A9FF1B4B20
:10118400596969B1D2F84C158DF808100022996894
:101194008DF8002001915A616846D3E90012904706
:1011A40004B070BDD2F81031002BCCD04FF488714C
:1011B4001046FFF78DFF0D4BD2F83C059969884224
:1011C400C1D1DC69D96864B1D2F8005225F0200598
:1011D400C2F800521A699C61DA60DE61FFF780FF91
:1011E400B1E79C61FAE700BF00200040B80000208E
:1011F4002DE9F8436A4B06799146242202FB063214
:10120400044692F820200D469846002A40F0C480F7
:1012140064490068FFF738FA0746002840F0BE80AA
:101224002868421C10D01F2887BF00F01F035E4AA5
:1012340003464FF0A0420121994003F5E073C2F840
:101244000815032142F8231069684B1C0DD01F298F
:101254008BBF01F01F030B46534A4FF0A04203F526
:10126400E0734FF0000C42F823C02368AA6995F894
:1012740014C0C3F824256A7DBCF1010F4CEA0202B4
:10128400C3F86C25C3F80C05C3F814152BD1A96851
:10129400481C0DD01F298BBF01F01F020A4642488B
:1012A4004FF0A04002F5E0724FF0000C40F822C06D
:1012B400E868421C13D01F2887BF00F01F0C3A4A6D
:1012C40084464FF0A0424FF0010E0EFA0CFE0CF5CE
:1012D400E07CC2F808E54FF0030E42F82CE0C3F8B6
:1012E4000805C3F810152423734308EB0302C2F85E
:1012F40004902A6948F80320B9F1000F3BD04FF459
:10130400887120682D7FFFF7E3FE4FF49071206809
:10131400FFF7DEFE4FF492712068FFF7D9FE2068D4
:101324004FF4A271FFF7D4FE2268204BC2F80433B5
:10133400120B53B2002BA8BF03F160404FEA5313C2
:101344004FEA4511BABF1A4802F00F0500F5614093
:101354004FEA8303C9B203F16043B4BF415580F837
:10136400001303F5614302F01F02012101FA02F2A6
:10137400C3F880211A6023680822C3F800252423B7
:1013840003FB06830022C3E906225A61012283F883
:1013940020203846BDE8F8830827FAE71127F8E744
:1013A400B8000020091100000003005010030200DF
:1013B40014ED00E001F06043B3F1005F2DE9F0416A
:1013C400074632D11C4B0679242505FB0635984681
:1013D4006C6964BB6A61A96000684FF49071FFF79F
:1013E40077FE4FF4AC713868FFF772FE3B686A69A8
:1013F400A968C3F84415C3F8482501229A606A68AD
:10140400BAB9D3F82011D3F8582149B9002AF8D031
:101414000F20242303FB068600237361BDE8F081BB
:10142400002A14BF0F200020F3E71020F6E7112054
:10143400F4E72046F2E700BFB8000020F8B501F059
:101444006043B3F1005F04460F465FD10379304D2A
:10145400242101FB0351486820B121684FF404762C
:10146400C1F80863242101FB03539E6956B1D9696D
:1014740000293AD020B123684FF40472C3F804233E
:10148400112031E09A61DF60DE614FF488712068D9
:10149400FFF71EFE4FF4A2712068FFF719FE2368C0
:1014A400C3F83475C3F838251EBB01221A602179AC
:1014B400242202FB0152526812BBD3F81001D3F864
:1014C4004421D3F82441104302D1002CF5D0024624
:1014D400242303FB015500239C4214BF0320184618
:1014E4009A42AB6118BF0F20F8BD1F61DA61012673
:1014F400CBE7D3F8002242F02002C3F80022D6E75B
:101504004FF40472C3F804230020EDE71020EBE746
:10151400B80000200648074A03780749D35C012233
:1015240013B10430FFF78ABF0C30FFF75BBD00BF77
:101534000000002040000020E000002013B50478E3
:10154400012C10D104238DF8003043681B788DF8EA
:101554000430FFF7DFFF0B4B1C700B4B68461B6816
:10156400984702B010BD022C06D1C3688DF8004024
:101574000193FFF7CFFFF0E7002CF2D103238DF89E
:101584000030EAE7E1000020DC000020F0B51B4D4C
:10159400064617469C460FCD89B06C460FC495E8A5
:1015A4000F0084E80F0073690693337C8DF81CC028
:1015B400003318BF01238DF81430737C1048002BBE
:1015C40014BF0E2300238DF81530F3680293B3681B
:1015D400039333680193736800930A4B1F600A4BAB
:1015E40000221A706946094AFEF7A8FF20B9336839
:1015F400013301D0FFF78EFF09B0F0BDFC190000E4
:1016040000000020DC000020E10000204115000063
:1016140008B50C490C4A08700C480378D35C0122C5
:101624004BB10430FFF7C6FE112808D0002814BFC0
:101634000320002008BD0C30FFF78AFCF4E70420E7
:10164400F8E700BFE2000020400000200000002076
:1016540070470378022B02D14068FEF7B9BE012B14
:10166400FAD0704738B5037805469BB90521406820
:10167400FFF780F908B1FEF7ABFE00246868204448
:10168400C0B20234FFF7C4FF0A2CF7D1024A136830
:101694000133136038BD00BFE400002030B50E4DA7
:1016A4000FCD8BB004AC0FC495E803000B4B0C4A70
:1016B40000934FF4807384E80300CDE9022301937F
:1016C400084A0723694604A8FFF760FF08B1FEF73C
:1016D4007FFE0BB030BD00BF1C1A0000FD000020CF
:1016E400FD010020571600001FB5FEF7E9FE08B102
:1016F400FEF76EFE174A18480023CDE9022302A91B
:10170400164AFFF78BF908B1FEF762FE144B154831
:10171400D3F810250021D2B220FA02F2009101235D
:101724000D48FFF710FA0C48FFF7E6F9FFF714F934
:1017340004460D48FEF740FF08B1FEF749FE0A4B88
:101744000A4918782246FEF763FF08B1FEF740FE07
:1017540004B010BD00000306441A00005516000032
:101764000080004000A86100FC000020408100408F
:1017740008B5054B1878FEF76BFF18B1BDE80840B3
:10178400FEF726BE08BD00BFFC0000201FB5134AAB
:1017940010685168127A01AB03C3114911481A70D9
:1017A400FFF750F808B1FEF713FE01A90020FFF778
:1017B4008BF808B1FEF70CFE05210B48FFF7DAF8A9
:1017C40008B1FEF705FE05210848FFF7D3F808B174
:1017D400FEF7FEFD05B05DF804FB00BF341A0000FF
:1017E400691600003D1A0000E8000020F200002005
:1017F40008B5FFF753FFFEF729FE08B1FEF7E8FD31
:10180400FFF7C4FFFFF770FFFFF7B2FFFEF734FEE8
:10181400FCE70000054B1B68082B01BF044B18684C
:10182400B0FA80F0400918BF002070473001001062
:101834003401001008B54FF080430022C3F80C2196
:10184400C3F81021C3F838254FF0805203F5404304
:10185400D2F80414C3F82015D2F80814C3F82415D8
:10186400D2F80C14C3F82815D2F81014C3F82C15A8
:10187400D2F81414C3F83015D2F81814C3F8341578
:10188400D2F81C14C3F84015D2F82014C3F8441538
:10189400D2F82414C3F84815D2F82814C3F84C1508
:1018A400D2F82C14C3F85015D2F83014C3F85415D8
:1018B400D2F83414C3F86015D2F83814C3F8641598
:1018C400D2F83C14C3F86815D2F84014C3F86C1568
:1018D400D2F84424C3F87025FFF79CFF10B1384BAD
:1018E400384A1A60FFF796FF18B1374BFB22C3F84A
:1018F4001825FFF78FFF48B13449354B0A681B6838
:1019040022F00F0203F00F0313430B60FFF782FF73
:1019140018B1304B4FF400721A604FF08043D3F883
:101924000024D20744BF6FF00102C3F800242A4AFE
:10193400D2F8883043F47003C2F88830BFF34F8F75
:10194400BFF36F8F4FF01023D3F80022002A03DB7C
:10195400D3F80432002B2FDA204B0122C3F80425DC
:10196400D3F80024002AFBD04FF010221221C2F831
:101974000012D3F80024002AFBD04FF010231222C7
:10198400C3F80422154B1A46D3F800140029FBD0DF
:101994000021C3F80415D2F80034002BFBD0BFF3A8
:1019A4004F8F0D490E4BCA6802F4E0621343CB60BB
:1019B400BFF34F8F00BFFDE70A4B0B4A1A6008BD07
:1019C4008C5600404881030000F00040E40E0040C3
:1019D400580200104096024000ED00E000E0014093
:0C19E4000400FA05140000200090D0035D
:1019F000F0190000F019000004000000FFFFFFFFD5
:101A0000FFFFFFFFFFFFFFFFFFFFFFFF00000000E2
:101A1000000000000000D6010701000008000000DF
:101A200006000000050000000700000000000000A4
:101A300000E0D701000000000200000100010006E4
:0C1A4000000000000080004000040000D6
:101A4C0000000000002000400000000000200040CA
:081A5C00000000000090D0031F
:040000030000037581
:00000001FF
